:10000000C7C00000ECC00000EAC000000C94CB0F99
:100010000C94EE0F0C941110E2C000000C946D12C1
:10002000DEC00000DCC00000DAC00000D8C0000064
:10003000D6C00000D4C00000D2C00000D0C0000074
:100040000C94A608CCC0000099C40000D8C40000DD
:10005000C6C00000C4C00000C2C00000C0C0000094
:100060000C94440DBCC00000DD02F302E002F30278
:10007000E302F302D502F302F302F302F302F30206
:10008000F302F302F302E602E902E602E902EC02FD
:10009000EF0200C201000100110011000C0000E19C
:1000A00000000A002500250021000096000019002C
:1000B000390039003600127A00001F004600460061
:1000C00044008070000022004D004D004A00004BAB
:1000D00000003600750075007200403800004A00CC
:1000E0009C009C009900802500007200EC00EC0050
:1000F000E900C0120000E900DA01DA01D701600965
:100100000000D701B603B603B303B0040000B30385
:100110006E076E076B07580200006E07DC0EDC0EE0
:10012000D80E2C010000DC0EC11DC11DBE1D00003B
:1001300000070002010000030406000000000000A8
:100140000000010204081020408001020408102071
:10015000010204081020040404040404040402023C
:100160000202020203030303030300000000230052
:100170002600290000000000250028002B000000B8
:100180000000240027002A009902BB05780BA30277
:1001900011241FBECFEFD8E0DEBFCDBF12E0A0E03C
:1001A000B1E0EAEAF2E302C005900D92A233B10792
:1001B000D9F714E0A2E3B2E001C01D92A338B10761
:1001C000E1F711E0CEE8D1E004C02297FE010E94E1
:1001D0001616C838D107C9F724D50C94491910CF81
:1001E000865B9F4FFC018081918108950F931F933F
:1001F000CF93DF93EC01162F072F6AE071E08EEAB0
:1002000092E056D54AE050E0612F702F8EEA92E0DE
:1002100055D6FE01E65BFF4F10830183FE01EA5BCA
:10022000FF4F612F808191810E94A50AC85BDF4F3B
:10023000612F88819981DF91CF911F910F910C944B
:10024000A50ACF93DF93EC0104960E945C12181666
:10025000190614F08A819B81DF91CF910895CF9385
:10026000DF93EC01DC01A05BBF4FFC01EA5BFF4FB9
:100270006C91808191810E947D0AFE01EE5AFF4FB0
:10028000C85BDF4F608188819981DF91CF910C94A9
:100290007D0ACF93DF93EC01FC01E05BFF4F81E02F
:1002A00090E091838083FE01EE5AFF4F918380831B
:1002B000E881F9810190F081E02D6FEF70E0CE01CF
:1002C0000995CE01DF91CF91CACFCF93DF93EC0197
:1002D000FC01E05BFF4F82E090E091838083FE01B0
:1002E000EE5AFF4F81E090E091838083E881F981AD
:1002F0000190F081E02D66E970E0CE010995CE0114
:10030000DF91CF91ACCFCF93DF93EC01FC01E05BA9
:10031000FF4F81E090E091838083FE01EE5AFF4F12
:1003200082E090E091838083E881F9810190F081FF
:10033000E02D66E970E0CE010995CE01DF91CF9105
:100340008ECFCF93DF93CDB7DEB7D4500FB6F894EE
:10035000DEBF0FBECDBFFE01EB5FFB4F4191519160
:100360009F0160E074E0CE0101960E947A16BE0102
:100370006F5F7F4F8AEC92E09BD4DC5F0FB6F894FE
:10038000DEBF0FBECDBFDF91CF910895EF92FF92F8
:100390000F931F93CF93DF93CDB7DEB7C454D1092A
:1003A0000FB6F894DEBF0FBECDBF8C018CEB91E091
:1003B000F801819391937F0160E6CF010E94380A92
:1003C000F801E65BFF4F11821082F801E45BFF4FFA
:1003D00081E090E091838083F801E25BFF4F84E04D
:1003E00090E091838083F801E05BFF4F91838083ED
:1003F000F801EE5AFF4F9183808360E6CE010196AB
:100400000E94380A84E4FE013196D70101900D92D2
:100410008A95E1F7C8018C5A9F4F24EC31E0FC012A
:100420003183208324EF31E04EE06EE004960E9499
:100430007211F801E659FF4F118610868CE291E0A7
:1004400091838083938382839583848384E893E07C
:1004500097838683F801EC58FF4F8AEC91E09183F3
:10046000808313821282F801E858FF4F8FEF9FEFCD
:1004700091838083CC5BDF4F0FB6F894DEBF0FBE55
:10048000CDBFDF91CF911F910F91FF90EF90089515
:10049000CF93DF93EC01FDDEC658DF4F81E090E0A3
:1004A0009983888369E171E08EEA92E0DF91CF91D0
:1004B0001BC440E855E260E070E08AEC92E0DAD2DA
:1004C00040E855E260E070E08EEA92E00E94AC10F5
:1004D00062E371E08EEA92E007D461E084E392E0A7
:1004E00072D7909379028093780264E084E392E07B
:1004F0006AD790937B0280937A0260E476E084E38B
:1005000092E01AD7E0913202F09133020190F0812B
:10051000E02D6FEF70E082E392E0099583E090E0D8
:100520009093AD028093AC0264E471E08EEA92E0B5
:10053000DBC320E040E16FE08EEA92E00E947E1093
:1005400082E392E023CF8EEA92E00C946C11FF924A
:100550000F931F93CF93DF938C01EB0119821882C5
:100560008EEA92E00E94A90E181619060CF04AC0F5
:100570008EEA92E00E946E0EF82E6DE571E08EEA32
:1005800092E096D36F2D8EEA92E0C0D34F2D55277F
:1005900047FD5095652F752FFA01F297E531F1056A
:1005A00010F5EC5CFF4F0C9414166CE671E08EEACB
:1005B00092E09AD385E090E014C088E090E011C00A
:1005C00087E090E00EC086E090E00BC081E090E014
:1005D00008C082E090E005C083E090E002C084E0C3
:1005E00090E09983888388819981009731F0F801A0
:1005F000228133818217930729F0F8019383828344
:1006000081E001C080E0DF91CF911F910F91FF90B9
:1006100008958F929F92AF92BF92CF92DF92EF9206
:10062000FF920F931F93CF93DF9300D01F92CDB70C
:10063000DEB78C01D5D5D62EC72E982E892EC801AF
:100640008C5A9F4FFEDDF801E659FF4F40855185DA
:100650009A01220F331F200F311FD901A659BF4F16
:10066000268137816D917C911197261B370B280FBE
:10067000391F378326834F5F5F4F518740878D93A4
:100680009C934330510510F01186108683E0A82E0C
:10069000B12CC901B5010E94AF157B011A821982E4
:1006A000BE016F5F7F4FC8018C589F4F50DF9A810A
:1006B0009F9399819F931F928F93FF92EF928F92B6
:1006C0009F92CF92DF9268014AE7C40ED11CD601F7
:1006D00011969C9111979F939C919F932BE731E0EA
:1006E0003F932F938B832DDEF601208131810FB64E
:1006F000F894DEBF0FBECDBF8B812330310509F0EA
:100700004EC0882309F48BC089819A818530910578
:10071000C1F134F4009701F1019709F46AC07FC078
:1007200087309105C9F1ACF1089709F078C0F8015C
:10073000E05BFF4F82E090E091838083F801EE5A06
:10074000FF4F91838083D801ED91FC910190F0815E
:10075000E02D6FEF70E018C0F801E05BFF4F81E023
:1007600090E091838083F801EE5AFF4F918380835C
:10077000D801ED91FC910190F081E02D60E070E0F6
:1007800003C0C80186DD4BC0C8010995C80167DDFB
:1007900046C0C8019ADD43C0C801B5DD40C088230A
:1007A00069F089819A81019749F4F601B182A082AA
:1007B00064E471E08EEA92E097D231C021303105D5
:1007C00061F4F801E858FF4F8081918197FD14C0D2
:1007D00005968E159F0518F50FC022303105F9F4E6
:1007E000BAE5EB16F104D8F4F801E858FF4FE082BF
:1007F000F182C8014DDE13C062E070E080E090E05D
:1008000079D4672B682B692B19F4C8015EDD02C00F
:10081000C80179DD82E090E0D6018D939C930F9022
:100820000F900F90DF91CF911F910F91FF90EF905C
:10083000DF90CF90BF90AF909F908F90089582E30C
:1008400092E0E7CEFC0184859585FC01E05CFF4FDA
:1008500020813181FC01EE5BFF4F80819181281B5B
:10086000390B2F733327C9010895FC0184859585C1
:10087000FC01E05CFF4F40815181FC01EE5BFF4FCA
:10088000208131814217530741F00190F081E02D22
:10089000E80FF91F208130E002C02FEF3FEFC901C0
:1008A0000895FC0184859585FC01E05CFF4F408143
:1008B0005181FC01EE5BFF4F2081318142175307CC
:1008C00081F0A081B181A80FB91F8C912081318165
:1008D0002F5F3F4F2F73332731832083282F30E042
:1008E00002C02FEF3FEFC9010895FC0181A18823C9
:1008F00029F0A489B5898C9186FFFBCF11A20895B8
:10090000CF93DF93FC0126853785D901A05CBF4FCB
:100910008D919C91119701968F739927E901CE5B78
:10092000DF4F4881598184179507D9F30D90BC9109
:10093000A02DA20FB31F6C93A685B785A05CBF4FF7
:1009400011969C938E93A689B7892C9181E090E0B3
:10095000078C02C0880F991F0A94E2F7282B2C936A
:1009600081E081A30488F589E02D80818064808303
:1009700081E090E0DF91CF91089508951F920F924A
:100980000FB60F9211242F933F934F938F939F9302
:10099000EF93FF938091C00082FD1CC04091C60080
:1009A000809170039091710301968F739927209124
:1009B0007203309173038217930771F0E091700313
:1009C000F0917103E05DFC4F40839093710380933D
:1009D000700302C08091C600FF91EF919F918F91AB
:1009E0004F913F912F910F900FBE0F901F90189530
:1009F0008AEC92E027DF892B09F0BFCF08951F9280
:100A00000F920FB60F9211242F933F938F939F93C2
:100A1000EF93FF9320912C0330912D0380912E03AF
:100A200090912F032817390731F48091C1008F7DF1
:100A30008093C10014C0E0912E03F0912F03E45184
:100A4000FD4F208180912E0390912F0301968F738B
:100A5000992790932F0380932E032093C600FF9134
:100A6000EF919F918F913F912F910F900FBE0F901B
:100A70001F901895CF92DF92EF92FF92CF93DF9362
:100A8000EC016A017B01411581EE58076105710592
:100A9000F9F0EC89FD8981E090E008A002C0880FA0
:100AA000991F0A94E2F7808360E079E08DE390E09B
:100AB000A70196010E94D61521503109410951091B
:100AC0005695479537952795211580E1380798F079
:100AD000EC89FD89108260E874E88EE190E0A7015E
:100AE00096010E94D61521503109410951095695A8
:100AF000479537952795E889F9893083EA89FB89F5
:100B0000208319A2EE89FF89408181E090E09C0159
:100B10000C8C02C0220F331F0A94E2F7422B408351
:100B2000EE89FF8940819C010D8C02C0220F331F8A
:100B30000A94E2F7422B4083EE89FF8940819C01B1
:100B40000E8C02C0220F331F0A94E2F7422B40831F
:100B5000EE89FF8920810F8C02C0880F991F0A94AB
:100B6000E2F7809582238083DF91CF91FF90EF9011
:100B7000DF90CF9008951092CD021092CC0288EEB3
:100B800093E0A0E0B0E08093CE029093CF02A093D8
:100B9000D002B093D10280ED91E09093CB0280938C
:100BA000CA0280E393E09093D7028093D6028CEE42
:100BB00092E09093D9028093D80285EC90E09093D4
:100BC000DB028093DA0284EC90E09093DD02809364
:100BD000DC0280EC90E09093DF028093DE0281ECF7
:100BE00090E09093E1028093E00282EC90E0909399
:100BF000E3028093E20286EC90E09093E50280931A
:100C0000E40284E08093E60283E08093E70287E0D9
:100C10008093E80285E08093E90281E08093EA0214
:100C2000089548D346DCC8EFD4E009DE2097E9F305
:100C3000DFDEFBCFCF92DF92EF92FF920F931F93F5
:100C4000CF93DF936C01EB017A01E60EF71E00E013
:100C500010E00BC06991D601ED91FC910190F081FB
:100C6000E02DC6010995080F191FCE15DF0591F774
:100C7000C801DF91CF911F910F91FF90EF90DF900E
:100C8000CF9008956115710581F0DB010D90002072
:100C9000E9F7AD0141505109461B570BDC01ED91BD
:100CA000FC910280F381E02D099480E090E00895AA
:100CB000E9CFDC01ED91FC910190F081E02D0994E8
:100CC0000F931F93CF93DF93EC016DE0F2DF8C0164
:100CD0006AE0CE01EEDF9C01200F311FC901DF91D8
:100CE000CF911F910F9108950F931F93CF93DF938F
:100CF000EC01C8DF8C01CE01E3DF9801280F391F1A
:100D0000C901DF91CF911F910F9108950F931F9308
:100D1000CF93DF93EC01CDDF8C01CE01D1DF9C01BD
:100D2000200F311FC901DF91CF911F910F910895BD
:100D30004F925F926F927F929F92AF92BF92CF92AB
:100D4000DF92EF92FF920F931F93CF93DF93CDB774
:100D5000DEB7A1970FB6F894DEBF0FBECDBF5C0122
:100D60006A017B01922E19A281E0821710F08AE0BD
:100D7000982E8E010F5D1F4F492C512C612C712C28
:100D8000C701B601A30192010E94D6158C2D929E37
:100D900080191124015011098A3014F4805D01C0BA
:100DA000895CF801808369017A01C114D104E104EE
:100DB000F10431F7B801C50165DFA1960FB6F894CB
:100DC000DEBF0FBECDBFDF91CF911F910F91FF907E
:100DD000EF90DF90CF90BF90AF909F907F906F90FB
:100DE0005F904F9008952115310541F4DC01ED919C
:100DF000FC910190F081E02D642F099499CF0F931D
:100E00001F93CF93DF93EC019A01462F50E060E0EF
:100E100070E0E9DF8C01CE0153DF9801280F391F04
:100E2000C901DF91CF911F910F910895CF92DF9269
:100E3000EF92FF920F931F93CF93DF93EC016A0120
:100E40007B012115310579F4E881F9810190F08168
:100E5000E02D642FDF91CF911F910F91FF90EF90C4
:100E6000DF90CF9009942A30310519F477FD0DC039
:100E70002AE0B701A601CE01DF91CF911F910F911A
:100E8000FF90EF90DF90CF9053CF6DE212DF8C0197
:100E900044275527BA014C195D096E097F092AE0DC
:100EA000CE0146DF080F191FC801DF91CF911F91B6
:100EB0000F91FF90EF90DF90CF9008950F931F93C5
:100EC000CF93DF93EC019A01AB01662757FD609544
:100ED000762FACDF8C01CE01F3DE9801280F391F8D
:100EE000C901DF91CF911F910F9108957F928F9249
:100EF0009F92AF92BF92CF92DF92EF92FF920F93A9
:100F00001F93CF93DF93EC016A017B01122F9A01AB
:100F1000AB01C701B6010E949C15882319F06CED46
:100F200071E032C046015701E894B7F82FEF3FEF68
:100F30004FE75FE7C501B4010E949C1581110DC008
:100F40002FEF3FEF4FE75FE7C501B4010E94931316
:100F500018161CF460EE71E017C02FEF3FEF4FE75B
:100F60005FE4C701B6010E94351518160CF40AC0DB
:100F70002FEF3FEF4FE75FECC701B6010E949313DD
:100F800087FF11C064EE71E0CE01DF91CF911F9118
:100F90000F91FF90EF90DF90CF90BF90AF909F9018
:100FA0008F907F906FCE20E030E0A901C701B6019D
:100FB0000E94931387FF09C06DE2CE017ADE5C01C7
:100FC000F7FAF094F7F8F09402C0A12CB12C00E0ED
:100FD00060E070E080E09FE307C020E030E040E2A6
:100FE00051E40E9497130F5F0113F7CF262F372F7D
:100FF000482F592FC701B6010E942F13762E872E36
:10100000982EC92E0E940414D62EE72EF82E092FF2
:101010000E9430149B01AC01672D782D892D9C2DE9
:101020000E942E13C62E972E882E792E2AE04D2D43
:101030005E2D6F2D702FCE017BDE7C01EA0CFB1C38
:101040001123A9F168EE71E0CE011CDEE80EF91E55
:101050002EC020E030E040E251E46C2D792D882D47
:10106000972D0E943915762E072F6C019D2D0E9419
:10107000FF134B01AA2497FCA094BA2C2AE030E07D
:10108000B501A401CE01D2DEE80EF91EC501B401FE
:101090000E9432149B01AC01672D702F8C2D9D2D69
:1010A0000E942E13C62E972E882E792E11501111C4
:1010B000D0CFC701DF91CF911F910F91FF90EF909B
:1010C000DF90CF90BF90AF909F908F907F900895CA
:1010D0000F931F93CF93DF93EC0108DF8C01CE01B8
:1010E000EFDD9801280F391FC901DF91CF911F91C2
:1010F0000F9108950F931F93CF93DF9300D000D0EB
:10110000CDB7DEB79B01AC01611571058105910575
:1011100079F069833A834B835C830E946E16298140
:101120003A814B815C810E94F8158B019C0103C0C0
:1011300000E010E09801B801C9010F900F900F90E6
:101140000F90DF91CF911F910F9108951F920F92F1
:101150000FB60F9211242F933F938F939F93AF93CA
:10116000BF938091740390917503A0917603B09121
:10117000770330917C03232F2D5F2D3720F40196C8
:10118000A11DB11D05C0232F2A570296A11DB11D17
:1011900020937C038093740390937503A09376034C
:1011A000B09377038091780390917903A0917A03AB
:1011B000B0917B030196A11DB11D8093780390939C
:1011C0007903A0937A03B0937B03BF91AF919F9172
:1011D0008F913F912F910F900FBE0F901F901895F8
:1011E0000F931F938FB7F8940091740310917503B8
:1011F00020917603309177038FBFB801C9011F9109
:101200000F9108950F931F939FB7F894009178035F
:101210001091790320917A0330917B0386B5A89BC6
:1012200006C08F3F21F00F5F1F4F2F4F3F4F9FBFD3
:10123000322F212F102F0027080F111D211D311DC6
:1012400042E0000F111F221F331F4A95D1F7B8014A
:10125000C9011F910F910895CF92DF92EF92FF92F3
:10126000CF93DF936B017C01CDDFEB010DC0CADFB3
:101270006C1B7D0B683E734038F081E0C81AD108C2
:10128000E108F108C851DC4FC114D104E104F104B4
:1012900071F7DF91CF91FF90EF90DF90CF9008959D
:1012A000019739F0880F991F880F991F02970197AE
:1012B000F1F70895789484B5826084BD84B5816027
:1012C00084BD85B5826085BD85B5816085BDEEE64E
:1012D000F0E0808181608083E1E8F0E0108280812D
:1012E00082608083808181608083E0E8F0E080819B
:1012F00081608083E1EBF0E0808184608083E0EBBB
:10130000F0E0808181608083EAE7F0E080818460A2
:1013100080838081826080838081816080838081FE
:10132000806880831092C100089520E030E040E0A2
:1013300050E08D5B9F4FE9C1EF92FF920F931F9397
:10134000CF93DF938C017B018DE793E09CD1E80183
:10135000CD5BDF4FCE013BD2F801F282E182B701D3
:1013600080E090E00E943014AB01BC01CE0155D268
:1013700010E020E030E040E050E0612FCE01C5D128
:101380001F5F1031B1F7DF91CF911F910F91FF9047
:10139000EF9008959A018D5B9F4F211540E134072E
:1013A00028F020E030E040E050E102C040E050E0B2
:1013B000ACC1411101C0B9CF20E030E040E050E1C4
:1013C0008D5B9F4FA2C1CF939C01653008F044C054
:1013D0006150C6E0462F50E0FC01C69FE00DF11DB4
:1013E0001124808581112EC06087CA010196C89F93
:1013F000F001C99FF00D1124E20FF31F3183208308
:10140000662351F0613061F0623071F0633079F43D
:1014100076E0A5E0B7E00BC079E0AAE0B8E007C04D
:101420007CE0ABE0BDE003C073E0A4E0B2E086E0A6
:10143000849FF001859FF00D1124E20FF31FB38309
:10144000A483758366E0649FC001659F900D11249D
:101450000396820F931F02C080E090E0CF91089521
:10146000FC01148213821582128211821082089567
:10147000BF92CF92DF92EF92FF920F931F93CF9381
:10148000DF931F92CDB7DEB78C01B62E7C0183E0CF
:10149000E80EF11C6801EBE1CE0ED11CC701E0DFC4
:1014A000F6E0EF0EF11CEC14FD04C1F7F80113A6F1
:1014B00016A612A611A617AEEE5BFF4F1082F8011A
:1014C00016AE15AE7801F3E4EF0EF11C60E4C7012F
:1014D00019D1F801B0826B2DCE01019613D189810B
:1014E000F70180830F90DF91CF911F910F91FF90B3
:1014F000EF90DF90CF90BF900895CF93DF93EC01F2
:10150000623059F06430A1F06130E1F46A818B817E
:101510009C810BDF41E0698106C069818B819C81E0
:1015200004DF41E06A818B819C81DF91CF9141CFC3
:1015300069818B819C81F9DE6A818B819C81DF913D
:10154000CF91F3CEDF91CF91089520E1629FA0016A
:101550001124FC016081838194811CCF8091AD03B3
:1015600090E02091AE03821B910908952091AE0373
:101570008091AD03281750F4E22FF0E0E155FC4FC5
:10158000808190E02F5F2093AE0308958FEF9FEF4F
:101590000895E091AE038091AD03E81730F4F0E0D8
:1015A000E155FC4F808190E008958FEF9FEF089503
:1015B0000895CF92DF92EF92FF920F931F93CF93F4
:1015C000DF937C01CB018A0120918903222389F0DA
:1015D000EB016B01C40ED51ECC15DD0561F06991E0
:1015E000D701ED91FC910190F081E02DC7010995A3
:1015F000F3CF642F20D2C801DF91CF911F910F91BB
:10160000FF90EF90DF90CF900895CF93DF931F92DC
:10161000CDB7DEB76983209189032223D1F02091D1
:101620008A03203240F021E030E0FC013383228342
:1016300080E090E014C080918B03E82FF0E0E45745
:10164000FC4F998190838F5F80938B0380938A03F3
:1016500004C061E0CE010196EED181E090E00F90F0
:10166000DF91CF910895FC011382128248EE53E07E
:1016700060E070E044835583668377838EEE91E06B
:101680009183808308951092AE031092AD0310925F
:101690008B0310928A031CC1862F413208F040E26E
:1016A0006FEA73E031D11092AE038093AD030895D9
:1016B00021E0F2CF81E0809389036093AC03109224
:1016C0008B0310928A0308950F93062F21E0409117
:1016D0008A036CE873E08091AC035AD110928B03BB
:1016E00010928A03109289030F91089561E0ECCF64
:1016F0008DE793E0B8CFDC01ED91FC910190F08192
:10170000E02D0994FC0160830895FF920F931F93CD
:10171000CF93DF9300D0CDB7DEB7162FF52E032F72
:10172000FC0160818DE793E02A834983C3DFE09168
:101730007D03F0917E0384E0189FB00111246A5F5D
:101740007F4F0190F081E02D8DE793E0099549816D
:10175000642F7F2D8DE793E0CEDF6F2D70E08DE756
:1017600093E0C9DF2A81622F702F8DE793E0C3DFFA
:10177000602F70E08DE793E0BEDF8DE793E00F9080
:101780000F90DF91CF911F910F91FF90AFCF1F93DB
:10179000CF93DF931F92CDB7DEB7162FFC01608188
:1017A0008DE793E0498386DF612F8DE793E02DDF9E
:1017B0004981642F8DE793E028DF8DE793E00F9058
:1017C000DF91CF911F9192CF40E060E0E0CFCF93C7
:1017D000DF93EC018DE793E056DFCE01DF91CF91EF
:1017E000F3CF1F93CF93DF93EC01162F68818DE722
:1017F00093E060DF612F8DE793E007DF8DE793E0F3
:1018000075DF41E068818DE793E052DF8DE793E07B
:10181000ADDEDF91CF911F910895CF92DF92EF92CD
:10182000FF921F93CF93DF93EC019A01AB0160E22B
:101830007CEB8EEB95E47BD720E030E040E85FE383
:101840000DD76B017C016AEF71E08AEC92E030DA2F
:1018500022E030E0B701A6018AEC92E039DC20E01A
:1018600030E040E05FE3C701B601F9D60E946D1495
:10187000CBD7F62E60E172E08AEC92E019DA4AE00A
:1018800050E06F2D8AEC92E0BADA60E0CE01A9DF79
:10189000182F482F4F76406160E0CE0178DF4F2D42
:1018A0006EEFCE0174DF412F60E0CE0170DF65E0A6
:1018B00070E080E090E0D0DC412F416A60E0CE0132
:1018C000DF91CF911F91FF90EF90DF90CF905FCF8E
:1018D00010923C0481E080933A041092390461E054
:1018E00082E186D661E083E183D6E9EBF0E0808196
:1018F0008E7F808380818D7F808388E48093B80091
:1019000085E48093BC000895413208F03FC0909177
:101910003C049111FCCF91E090933C0420933A0455
:101920002FEF2093CF0310921404240F209313045D
:1019300090933B0490913B04880F892B80933B0448
:1019400080913904813041F41092390480913B0434
:101950008093BB0085EC01C085EE8093BC00809134
:101960003C048130E1F380911404841710F4409119
:10197000140425E134E0FB01D9018A2F821B84176E
:1019800018F48D918193F9CF842F089580E0089504
:101990000F93413208F046C090913C049111FCCF66
:1019A00092E090933C0400933A049FEF9093CF030E
:1019B0001092140440931304FB0165E174E0DB0111
:1019C0009A2F961B941718F491919D93F9CF10922A
:1019D0003B0490913B04880F892B80933B048091BA
:1019E0003904813041F41092390480913B04809392
:1019F000BB0085EC01C085EE8093BC00222321F062
:101A000080913C048230E1F38091CF038F3F61F0FD
:101A10008091CF03803251F08091CF03803341F425
:101A200083E007C081E005C080E003C082E001C020
:101A300084E00F910895613298F420913C042430A1
:101A400089F46093F103FC0183EF93E0DC012A2F1A
:101A5000281B261718F421912D93F9CF80E00895C3
:101A600081E0089582E0089585ED8093BC00809127
:101A7000BC0084FDFCCF10923C04089585EC80935B
:101A8000BC0010923C0408951F920F920FB60F9263
:101A900011242F933F934F935F936F937F938F9373
:101AA0009F93AF93BF93EF93FF938091B900887F8B
:101AB000803609F49CC068F5883209F45BC090F464
:101AC000803109F454C038F4882309F4F3C0883015
:101AD00009F44DC0F2C0883109F44CC0803209F4D9
:101AE0005DC0EBC0803409F468C048F4803309F469
:101AF00055C0883309F0E1C08093CF03A7C080357B
:101B000009F44FC0883509F45DC0883409F0D5C0A8
:101B1000D3C0883909F4C4C0A8F4883709F467C071
:101B200038F4883609F463C0803709F460C0C5C052
:101B3000883809F4B5C0803909F45FC0803809F0ED
:101B4000BCC05BC0803B09F483C038F4803A09F420
:101B500066C0883A09F47CC0B0C0803C09F4A4C0D7
:101B6000883C09F4A1C0883B09F487C0A6C08091D5
:101B70003B0410C09091140480911304981770F5E1
:101B8000E091140481E08E0F80931404F0E0EB5E8A
:101B9000FB4F80818093BB0085EC83C08093CF0393
:101BA0008BC0E091140481E08E0F80931404809127
:101BB000BB00F0E0EB5EFB4F8083909114048091BA
:101BC00013046BC0E091140481E08E0F8093140421
:101BD0008091BB00F0E0EB5EFB4F808380913A0484
:101BE00081116AC081E08093390484EA5EC083E099
:101BF00080933C041092D003CFCF8091D0038032E9
:101C000008F04EC0E091D00381E08E0F8093D003A6
:101C10008091BB00F0E0EF52FC4F8083BDCF8091FC
:101C2000D003803230F4E091D003F0E0EF52FC4F6B
:101C300010821ADF6091D00370E0E0913504F091DA
:101C4000360481ED93E009951092D00317DF35C07B
:101C500084E080933C041092F2031092F103E0912F
:101C60003704F091380409958091F103811105C082
:101C700081E08093F1031092F303E091F20381E09D
:101C80008E0F8093F203F0E0ED50FC4F8081809343
:101C9000BB009091F2038091F103981708F47CCF78
:101CA00085E88093BC0009C085EC8093BC0010924D
:101CB0003C0403C01092CF03D7DEFF91EF91BF9198
:101CC000AF919F918F917F916F915F914F913F91D4
:101CD0002F910F900FBE0F901F90189520917F04A9
:101CE0003091800428173907B9F490913D04809110
:101CF0003E04981789F0E0913D04F0E0E15CFB4F71
:101D0000808120913D0430E02F5F3F4F2F733327B8
:101D100020933D0490E008958FEF9FEF0895209168
:101D20007F04309180042817390781F490913D0495
:101D300080913E04981751F0E0913D04F0E0E15CA1
:101D4000FB4F8081992787FD909508958FEF9FEF36
:101D5000089520917F04309180042817390761F499
:101D600080913E0420913D0490E0805C9F4F821B57
:101D7000910960E470E007C780E090E00895209149
:101D80007F04309180042817390739F48FB7F8940D
:101D900010923E0410923D048FBF0895DC015196CD
:101DA000ED91FC915297208150968C9180958223E1
:101DB0008083089520E001972FEF8F3F9207D9F796
:101DC000089520917F04309180042817390789F005
:101DD000FC01238D2E7F238F2FB7F89410923E04A1
:101DE00010923D049093800480937F042FBF81E084
:101DF000089580E00895EF92FF920F931F93CF9381
:101E0000DF93EC018B8DEE85FF859D8581FF04C0FE
:101E10008081892329F444C08081892309F040C04E
:101E20008B899C89C7DF08E010E0EE24E394F12C55
:101E30008D899E89BFDFEE85FF8580819D85892301
:101E400011F0FE2803C08E2D8095F822EE0C015073
:101E500011090115110561F78F89988DABDF8B8D05
:101E600081FDF09480913E0420913D0490E0019624
:101E70008F73992730E08217930779F0E0913E0441
:101E8000F0E0E15CFB4FF08280913E0490E001962F
:101E90008F73992780933E0403C08B8D81608B8F55
:101EA000DF91CF911F910F91FF90EF9008956111F5
:101EB00001C074CFDC015196ED91FC9152972081C5
:101EC00050968C91282B20830895DF92EF92FF92F9
:101ED0000F931F93CF93DF93EC01E62E898D9A8D9C
:101EE000892B39F481E090E09B838A8380E090E045
:101EF00042C0DFB6F8946B8D66956170CE01D7DF76
:101F0000898D9A8D059656DF8B8D08E010E0FF24B1
:101F1000F39481FF15C08F2D8E2119F0CE013EDF85
:101F200003C061E0CE01C3DF898D9A8D43DFFF0CD2
:101F3000015011090115110571F7CE012FDF15C0F0
:101F40008F2D8E2121F061E0CE01B1DF02C0CE01E4
:101F500025DF898D9A8D2EDFFF0C015011090115A7
:101F6000110571F761E0CE01A2DFDFBE898D9A8D88
:101F700021DF81E090E0DF91CF911F910F91FF90E1
:101F8000EF90DF90089580917F04909180040097F6
:101F900009F031CF08951F920F920FB60F921124BE
:101FA0002F933F934F935F936F937F938F939F9361
:101FB000AF93BF93EF93FF93E6DFFF91EF91BF9154
:101FC000AF919F918F917F916F915F914F913F91D1
:101FD0002F910F900FBE0F901F9018951F920F9288
:101FE0000FB60F9211242F933F934F935F936F93EC
:101FF0007F938F939F93AF93BF93EF93FF93C3DF31
:10200000FF91EF91BF91AF919F918F917F916F91D0
:102010005F914F913F912F910F900FBE0F901F90A6
:1020200018951F920F920FB60F9211242F933F9382
:102030004F935F936F937F938F939F93AF93BF93D0
:10204000EF93FF93A0DFFF91EF91BF91AF919F912D
:102050008F917F916F915F914F913F912F910F9051
:102060000FBE0F901F9018951F93CF93DF93EC0135
:10207000162F61E0812F84D261E0812FB9D2812FA8
:1020800090E0FC01EE5BFE4FE491E88BFC01EA5A24
:10209000FE4FE491F0E0EE0FFF1FEC58FE4F8591EC
:1020A00094919A8B898BDF91CF911F9108951F9303
:1020B000CF93DF93EC01162F60E0812F61D28B8DDF
:1020C00081FD03C061E0812F93D21C87812F90E0B6
:1020D000FC01EE5BFE4FE491ED87FC01EA5AFE4FF6
:1020E000E491F0E0EE0FFF1FE659FE4F85919491C9
:1020F0009F878E87DF91CF911F910895FF920F9355
:102100001F93CF93DF93EC01F62E522F1B821A827E
:1021100008EE13E020E030E00C831D832E833F8324
:1021200086E292E0998388831C8A1B8A1E8A1D8A14
:10213000188E1F8A1A8E198E8B8D8E7F50FB81F917
:102140008B8F642FCE0190DF6F2DCE01DF91CF9169
:102150001F910F91FF90ABCF0F931F93CF93DF93FE
:10216000EC011A8E198E188E1F8A1E8A1D8AA2E90A
:10217000B0E080E090E0FD0105911591259134914A
:10218000041715072607370719F54CE0489F9001FB
:10219000499F300D1124F901EA56FF4F8591949122
:1021A0009C8B8B8BF901E856FF4F859194919E8B08
:1021B0008D8BF901E656FF4F85919491988F8F8B07
:1021C00024563F4FF901859194919A8F898F08C0C9
:1021D00001961C968D30910509F0CDCF1C8A1B8A83
:1021E0008F89988D892B09F442C08C858631E0F562
:1021F00020916800883050F091E08E3008F490E033
:1022000081E001C0880F9A95EAF701C084E0822B33
:10221000809368002C85283038F02E3040F026312D
:1022200048F0E0E0F0E008C0EDE6F0E005C0EBE6E5
:10223000F0E002C0ECE6F0E03081283030F481E0DC
:1022400001C0880F2A95EAF70DC0822F90E02E304A
:1022500010F4089701C00E9791E001C0990F8A957C
:10226000EAF7892F832B8083898D9A8DA3DDCE0198
:10227000DF91CF911F910F91A4CDFC014485463190
:1022800050F5483028F04E3030F4EBE6F0E005C071
:10229000EDE6F0E002C0ECE6F0E05081483040F4BA
:1022A00081E090E0042E01C0880F0A94EAF710C084
:1022B000242F30E04E3018F42850310902C02E503F
:1022C000310981E090E0022E01C0880F0A94EAF7FC
:1022D000809585238083089526E232E0FC013183D6
:1022E0002083CBCFDC01862F90E0FC01EE5BFE4F1C
:1022F000E4911496EC93149750E0FA01EE5BFE4FD4
:10230000E4911596EC931597FC01EA5AFE4F8491DF
:1023100090E0880F991FFC01EC58FE4F6591749175
:1023200017967C936E931697FA01EA5AFE4FE49142
:10233000F0E0EE0FFF1FE659FE4F459154911B96BA
:102340005C934E931A9782589E4FFC01859194910D
:1023500019969C938E931897C901853F21E09207A7
:1023600014F084EF91E049E3489F9001499F300DBC
:102370001124245E3F4F1D963C932E931C97089585
:102380000F931F93CF93DF93EC01E885F98580814C
:102390009C81892B8083EE81FF8190818C81809547
:1023A0008923808384E090E00E945009EE81FF81C0
:1023B00080819C81892B80838AE090E00E94500973
:1023C000EE81FF8190818C81809589238083E885CF
:1023D000F98590818C818095892380830E940209F0
:1023E000605B794B8F4F9F4F6E877F87888B998B70
:1023F000EA85FB8580819D81892359F00E9402092D
:102400000E851F8528893989061717072807390778
:1024100078F7EA85FB8580819D81892369F40E9494
:1024200002090E851F85288939890617170728078D
:10243000390778F780E00DC00E9402092C853D85A0
:10244000620F731F811D911D6E877F87888B998B0B
:1024500081E0DF91CF911F910F9108950F931F930A
:10246000CF93DF93EC018CDF882389F0EA85FB852D
:1024700080819D81892371F00E9402090E851F854C
:1024800028893989061717072807390778F720E0C0
:1024900030E00CC00E9402092C853D852550310991
:1024A0004E855F85241B350B260F371FC901DF9131
:1024B000CF911F910F910895D1DF31E020E0009777
:1024C00009F430E04C9669E370E049D3832F922FF2
:1024D0008617970708F4CB0108951F920F920FB645
:1024E0000F9211242F933F934F935F936F937F939A
:1024F0008F939F93AF93BF93EF93FF93E0918104EA
:10250000F0918204309709F00995FF91EF91BF9106
:10251000AF919F918F917F916F915F914F913F917B
:102520002F910F900FBE0F901F901895833069F078
:1025300028F48130A1F0823011F514C08630B1F05A
:102540008730C1F08430D9F404C0809180008F7747
:1025500003C0809180008F7D80938000089584B5B2
:102560008F7702C084B58F7D84BD08958091B000BF
:102570008F7703C08091B0008F7D8093B000089565
:10258000CF93DF9390E0FC01EE5BFE4F4491FC01A2
:10259000EA5AFE4F8491882341F190E0880F991FF9
:1025A000FC01E258FE4F25913491D9018C589E4F81
:1025B000FC0185919491C82FD92F9FB7F8948C91E5
:1025C000611106C0409584238C938881842308C0C0
:1025D000623041F4242F209582238C938881842BB0
:1025E000888302C0842B8C939FBFDF91CF91089585
:1025F0000F931F93CF93DF931F92CDB7DEB7282F92
:1026000030E0F901E25DFE4F8491F901EE5BFE4F8F
:102610001491F901EA5AFE4F04910023C9F088236E
:1026200019F0698383DF6981E02FF0E0EE0FFF1F6F
:10263000EC58FE4F85919491DC019FB7F8948C91F2
:10264000611103C01095812301C0812B8C939FBF22
:102650000F90DF91CF911F910F9108955058BB2794
:10266000AA270ED0B1C1A2D130F0A7D120F031F409
:102670009F3F11F41EF497C10EF4E095E7FB64C18F
:10268000E92FB3D180F3BA17620773078407950760
:1026900018F071F49EF5E2C10EF4E0950B2EBA2FFE
:1026A000A02D0B01B90190010C01CA01A001112458
:1026B000FF27591B99F0593F50F4503E68F11A1604
:1026C000F040A22F232F342F4427585FF3CF469595
:1026D00037952795A795F0405395C9F77EF41F16B7
:1026E000BA0B620B730B840BBAF09150A1F0FF0F81
:1026F000BB1F661F771F881FC2F70EC0BA0F621F6D
:10270000731F841F48F4879577956795B795F7955C
:102710009E3F08F0B3CF9395880F08F09927EE0FEE
:10272000979587950895ECD008F481E008950CD032
:102730004BC143D140F03AD130F021F45F3F19F062
:1027400003C151118CC12FC150D198F39923C9F302
:102750005523B1F3951B550BBB27AA2762177307A7
:10276000840738F09F5F5F4F220F331F441FAA1F5B
:10277000A9F333D00E2E3AF0E0E830D0915050401B
:10278000E695001CCAF729D0FE2F27D0660F771FC9
:10279000881FBB1F261737074807AB07B0E809F0AB
:1027A000BB0B802DBF01FF2793585F4F2AF09E3F40
:1027B000510568F0C9C053C15F3FECF3983EDCF3AC
:1027C000869577956795B795F7959F5FC9F7880FB9
:1027D000911D9695879597F90895E1E0660F771F0B
:1027E000881FBB1F621773078407BA0720F0621B9C
:1027F000730B840BBA0BEE1F88F7E095089504D095
:102800006894B1112CC10895F8D088F09F5790F0CA
:10281000B92F9927B751A0F0D1F0660F771F881F05
:10282000991F1AF0BA95C9F712C0B13081F016D1CC
:10283000B1E0089513C1672F782F8827B85F39F06A
:10284000B93FCCF3869577956795B395D9F73EF464
:1028500090958095709561957F4F8F4F9F4F08950C
:10286000E89409C097FB3EF490958095709561952A
:102870007F4F8F4F9F4F9923A9F0F92F96E9BB27E0
:102880009395F695879577956795B795F111F8CF5C
:10289000FAF4BB0F11F460FF1BC06F5F7F4F8F4FC7
:1028A0009F4F16C0882311F096E911C0772321F0BD
:1028B0009EE8872F762F05C0662371F096E8862F55
:1028C00070E060E02AF09A95660F771F881FDAF7AC
:1028D000880F9695879597F90895A9D080F09F372E
:1028E00040F491110EF0BBC060E070E080E89FEB17
:1028F000089526F41B16611D711D811D2BC045C056
:10290000990F0008550FAA0BE0E8FEEF1616170600
:10291000E807F907C0F012161306E407F50798F068
:10292000621B730B840B950B39F40A2661F0232B81
:10293000242B252B21F408950A2609F4A140A695FD
:102940008FEF811D811D089597F99F6780E870E0E2
:1029500060E00895882371F4772321F09850872B45
:10296000762F07C0662311F499270DC09051862B4E
:1029700070E060E02AF09A95660F771F881FDAF7FB
:10298000880F9695879597F908959F3F31F091505C
:1029900020F4879577956795B795880F911D969543
:1029A000879597F908959FEF80EC089500240A9485
:1029B0001616170618060906089500240A9412161A
:1029C0001306140605060895092E0394000C11F44D
:1029D000882352F0BB0F40F4BF2B11F460FF04C0FA
:1029E0006F5F7F4F8F4F9F4F089557FD9058440F53
:1029F000551F59F05F3F71F04795880F97FB991F5E
:102A000061F09F3F79F0879508951216130614061A
:102A1000551FF2CF4695F1DF08C0161617061806A7
:102A2000991FF1CF86957105610508940895E5DF3A
:102A3000A0F0BEE7B91788F4BB279F3860F41616DC
:102A4000B11D672F782F8827985FF7CF86957795E8
:102A50006795B11D93959639C8F30895E894BB27FF
:102A600066277727CB0197F908954ADF08F48FEF9F
:102A700008950BD0A9CF9ADF28F09FDF18F0952397
:102A800009F062CF90CF1124EACFAFDFA0F3959F7A
:102A9000D1F3950F50E0551F629FF001729FBB2745
:102AA000F00DB11D639FAA27F00DB11DAA1F649FF1
:102AB0006627B00DA11D661F829F2227B00DA11DA4
:102AC000621F739FB00DA11D621F839FA00D611D2A
:102AD000221F749F3327A00D611D231F849F600D4B
:102AE000211D822F762F6A2F11249F5750408AF084
:102AF000E1F088234AF0EE0FFF1FBB1F661F771F10
:102B0000881F91505040A9F79E3F510570F01CCF8F
:102B1000A6CF5F3FECF3983EDCF3869577956795FB
:102B2000B795F795E7959F5FC1F7FE2B880F911D2D
:102B30009695879597F90895E3DE880B990B08958C
:102B4000A29FB001B39FC001A39F700D811D1124EE
:102B5000911DB29F700D811D1124911D0895AA1B16
:102B6000BB1B51E107C0AA1FBB1FA617B70710F078
:102B7000A61BB70B881F991F5A95A9F780959095AA
:102B8000BC01CD01089597FB072E16F4009406D0E2
:102B900077FD08D0E4DF07FC05D03EF490958195E1
:102BA0009F4F0895709561957F4F0895A1E21A2E69
:102BB000AA1BBB1BFD010DC0AA1FBB1FEE1FFF1FE1
:102BC000A217B307E407F50720F0A21BB30BE40B31
:102BD000F50B661F771F881F991F1A9469F7609578
:102BE0007095809590959B01AC01BD01CF01089532
:102BF000052E97FB16F400940FD057FD05D0D6DFB5
:102C000007FC02D046F408C05095409530952195B8
:102C10003F4F4F4F5F4F0895909580957095619508
:102C20007F4F8F4F9F4F0895EE0FFF1F0590F49138
:102C3000E02D099485DFA59F900DB49F900DA49F72
:102C4000800D911D112408958F929F92AF92BF9293
:102C5000CF92DF92EF92FF92CF93DF93EC016881E6
:102C600079818A819B81611571058105910521F426
:102C700064E279ED8BE597E02DE133EF41E050E040
:102C8000B7DF49015A019B01AC01A7EAB1E4D2DFE9
:102C90006B017C01ACEEB4EFA5019401BFD2C60E6E
:102CA000D71EE81EF91EF7FE06C081E0C81AD1083B
:102CB000E10880E8F80AC882D982EA82FB82C7016B
:102CC000B6019F77DF91CF91FF90EF90DF90CF908B
:102CD000BF90AF909F908F900895B6CF86E091E01F
:102CE000B3CF60930601709307018093080190931E
:102CF00009010895AEE0B0E0EFE7F6E1A1C28C0172
:102D0000CA0146E04C831A83098377FF02C060E062
:102D100070E8615071097E836D83A901BC01CE0109
:102D2000019611D04D815E8157FD0AC02F813885F3
:102D3000421753070CF49A01F801E20FF31F1082B7
:102D40002E96E4E099C2ACE0B0E0E8EAF6E16AC2AF
:102D50007C016B018A01FC0117821682838181FF4D
:102D6000B0C1CE0101964C01F7019381F60193FDAC
:102D7000859193FF81916F01882309F49EC185326B
:102D800039F493FD859193FF81916F01853221F490
:102D9000B70190E0B1D1E8CF512C312C20E02032A6
:102DA000A0F48B3269F030F4803259F0833269F448
:102DB00020612CC08D3239F0803339F4216026C077
:102DC0002260246023C0286021C027FD27C030ED89
:102DD000380F3A3078F426FF06C0FAE05F9E300DD7
:102DE0001124532E13C08AE0389E300D1124332E47
:102DF00020620CC08E3221F426FD5FC1206406C023
:102E00008C3611F4206802C0883641F4F60193FD37
:102E1000859193FF81916F018111C1CF982F9F7D83
:102E20009554933028F40C5F1F4FFFE3F9830DC0D6
:102E3000833631F0833771F0833509F057C021C0F4
:102E4000F801808189830E5F1F4F44244394512CE5
:102E5000540114C03801F2E06F0E711CF801A0801B
:102E6000B18026FF03C0652D70E002C06FEF7FEFD9
:102E7000C5012C8736D12C0183012C852F77222E7A
:102E800016C03801F2E06F0E711CF801A080B1800D
:102E900026FF03C0652D70E002C06FEF7FEFC50114
:102EA0002C8714D12C012C852068222E830123FC31
:102EB00019C0832D90E048165906A0F4B70180E2AE
:102EC00090E01AD13A94F5CFF50127FC859127FEC1
:102ED00081915F01B70190E00FD131103A94F1E098
:102EE0004F1A51084114510479F7DEC0843611F0AD
:102EF000893631F5F80127FF07C060817181828131
:102F000093810C5F1F4F08C060817181882777FD16
:102F10008095982F0E5F1F4F2F76B22E97FF09C016
:102F200090958095709561957F4F8F4F9F4F20684A
:102F3000B22E2AE030E0A40111D1A82EA81843C077
:102F4000853729F42F7EB22E2AE030E025C0F22FFB
:102F5000F97FBF2E8F36C1F018F4883579F0ADC0F7
:102F6000803719F0883721F0A8C02F2F2061B22EAA
:102F7000B4FE0DC08B2D8460B82E09C024FF0AC09A
:102F80009F2F9660B92E06C028E030E005C020E1F2
:102F900030E002C020E132E0F801B7FE07C06081F6
:102FA0007181828193810C5F1F4F06C060817181A6
:102FB00080E090E00E5F1F4FA401D0D0A82EA8188B
:102FC000FB2DFF77BF2EB6FE0BC02B2D2E7FA51439
:102FD00050F4B4FE0AC0B2FC08C02B2D2E7E05C0F2
:102FE0007A2C2B2D03C07A2C01C0752C24FF0DC028
:102FF000FE01EA0DF11D8081803311F4297E09C0A4
:1030000022FF06C07394739404C0822F867809F05F
:10301000739423FD12C020FF06C05A2C731418F4B9
:10302000530C5718732C731460F4B70180E290E0CE
:103030002C8762D073942C85F6CF731410F4371854
:1030400001C0312C24FF11C0B70180E390E02C8730
:1030500053D02C8522FF16C021FF03C088E590E0E5
:1030600002C088E790E0B7010CC0822F867851F04B
:1030700021FD02C080E201C08BE227FD8DE2B70195
:1030800090E03AD0A51430F4B70180E390E034D05A
:103090005A94F8CFAA94F401EA0DF11D8081B7018A
:1030A00090E02AD0A110F6CF332009F45DCEB7010D
:1030B00080E290E021D03A94F7CFF70186819781A2
:1030C00002C08FEF9FEF2C96E2E1C8C0FC01059093
:1030D000615070400110D8F7809590958E0F9F1F1A
:1030E0000895FC016150704001900110D8F780955F
:1030F00090958E0F9F1F08950F931F93CF93DF938B
:10310000182F092FEB018B8181FD03C08FEF9FEFFB
:1031100020C082FF10C04E815F812C813D8142170B
:1031200053077CF4E881F9819F012F5F3F4F39837A
:103130002883108306C0E885F985812F0995892B9E
:1031400029F72E813F812F5F3F4F3F832E83812FB1
:10315000902FDF91CF911F910F910895FA01AA2727
:10316000283051F1203181F1E8946F936E7F6E5FCA
:103170007F4F8F4F9F4FAF4FB1E03ED0B4E03CD078
:10318000670F781F891F9A1FA11D680F791F8A1F5B
:10319000911DA11D6A0F711D811D911DA11D20D0C2
:1031A00009F468943F912AE0269F11243019305D7C
:1031B0003193DEF6CF010895462F4770405D41936D
:1031C000B3E00FD0C9F7F6CF462F4F70405D4A33BA
:1031D00018F0495D31FD4052419302D0A9F7EACF82
:1031E000B4E0A6959795879577956795BA95C9F7B1
:1031F00000976105710508959B01AC010A2E0694A4
:103200005795479537952795BA95C9F7620F731F5C
:10321000841F951FA01D0895B7FF0CCD0BDD821BE9
:10322000930B08952F923F924F925F926F927F92ED
:103230008F929F92AF92BF92CF92DF92EF92FF92C6
:103240000F931F93CF93DF93CDB7DEB7CA1BDB0B72
:103250000FB6F894DEBF0FBECDBF09942A88398817
:1032600048885F846E847D848C849B84AA84B9841E
:10327000C884DF80EE80FD800C811B81AA81B9812A
:10328000CE0FD11D0FB6F894DEBF0FBECDBFED013E
:10329000089511E0CEE8D1E003C0FE01C7DC22961C
:0A32A000C039D107D1F7F894FFCF31
:1032AA000000830420000100000053657474696EF5
:1032BA006720737065656420005377697463686971
:1032CA006E6720746F2073656E736F72206D6F6402
:1032DA006500526F626F7420696E697469616C6906
:1032EA007A656400537769746368696E6720746FDE
:1032FA002072656D6F7465206D6F64650052656339
:10330A00656976656420636861723A004D6F766913
:10331A006E6720666F727761726400737461746598
:10332A003A2025642C2063757272656E7454696D37
:10333A00653A20256C752C2064697374616E636527
:10334A003A2025752072656D6F74653A20282564C8
:10335A002C6B3A2564290A0000000000F600F000F0
:10336A0000000000210100000000A7020000000088
:10337A0080041A0622045104350475046E616E0035
:10338A00696E66006F7666002E0000000000050B6D
:10339A00D90AAE0AB60AC90AD80A457374696D61B0
:1033AA00746564207072652D7363616C653A2000E0
:1033BA0046696E616C207072652D7363616C653A43
:1033CA00200000000000650F1A06A90E6E0E8F0E6F
:0233DA00BF0E24
:00000001FF
